:100000000206D5020000000000000002000000000F
:1000100000000002000000000000000200000000DC
:0E0020000000000200000000000000020000CE
:0A002E007E0A7FDBDFFEDEFC00220D
:060038007F16DFFE00222E
:02003E0000229E
:10004000E5215480F8630080E8600478008002783D
:1000500001E81392A5E5215440F8630040E86004EC
:10006000780080027801E81392A4E5215420F86317
:100070000020E86004780080027801E81392A0E58F
:10008000215410F8630010E86004780080027801C1
:10009000E81392A1E50F6004780080027801E8136C
:1000A00092A3D2A2113EC2A2E5215408F86300082F
:1000B000E86004780080027801E81392A5E52154F5
:1000C00004F8630004E86004780080027801E81313
:1000D00092A4E5215402F8630002E86004780080ED
:1000E000027801E81392A0E5215401F8630001E8C9
:1000F0006004780080027801E81392A1E50F6004A3
:10010000780080027801E81392A3D2A2113EC2A225
:0B011000E50F6004112E800211382260
:0C011B00750F008520211140750F012296
:10012700BD000BB90029E88CF084F8ACF022E4CDCF
:10013700FF75F008E828F8E933F9ED33FDE99CEDA0
:100147009F4005FDE99CF908D5F0E9E4C9FC22ECDC
:10015700FFF5F0E98420D21CF9ACF075F008E82827
:10016700F8EC33FC40079F5006D5F0F222C39FFC02
:0501770008D5F0EA22AA
:10017C00C2D5ED30E709B2D5E4C39CFCE49DFDE9A2
:10018C0030E715B2D5E4C398F8E499F9120127C306
:10019C00E49CFCE49DFD800312012730D507C3E4E9
:0601AC0098F8E499F92225
:1001B2008019751C80802E751CC08029751C948046
:1001C20024751CD4801F751C80801AE51C64016094
:1001D200E1E51C640260E0E51C640360DFE51C6489
:1001E2000460DE80E1C3E51D9401F8E51C28F88572
:1001F200001C8500211140750F00751F00E51E25AA
:100202001FF8E6600DE51E251FF88620311B051F2D
:0602120080EB750F0122D4
:05021800C2A7C2A622EE
:10021D00E88CF0A4AFF0C88DF0A42FC98CF0A42900
:02022D00F922B4
:10022F00D2A7C2A67D047E817F79DFFEDEFCDDFAD8
:10023F000051187D167E037FE5DFFEDEFCDDFA0040
:10024F00C2A7D2A67D047E817F79DFFEDEFCDDFAB8
:04025F000051182210
:100263008019751980802E7519C08029751994809D
:10027300247519D4801F751980801AE519640160EB
:10028300E1E519640260E0E519640360DFE51964E0
:100293000460DE80E1C3E51A9401F8E51928F885C6
:1002A3000019750F018500211140750F00851B2171
:0602B3001140750F01224D
:0502B900C298A8992283
:1002BE007521011140751C01751D01751E3931B274
:1002CE00751C02751D01751E4631B27D047E817F3F
:1002DE0079DFFEDEFCDDFA007521011140751C018F
:0902EE00751D01751E5631B22286
:1002F7007521011140751C01751D01751E6C31B208
:10030700751C02751D01751E6731B27C647D00A8DE
:1003170008A909317C743028F520311B7C0A7D003F
:10032700A808A909317C7C0A7D00317CA804A905AD
:10033700743028F520311B7C0A7D00A808A90931F3
:0D0347007CA804A905743028F520311B2284
:06035400A298E433F82238
:10035A0075650C756600C294D295D2962090067582
:10036A006501756600209106756504756600209220
:10037A0006756507756600D294C295D296209006D6
:10038A00756502756600209106756505756600201B
:10039A009206756508756600209306756500756690
:1003AA0000D294D295C296209006756503756600B0
:1003BA0020910675650675660020920675650975B1
:1003CA006600740C6565700474006566700261608D
:0E03DA007D037E1A7FE1DFFEDEFCDDFA0022ED
:1003E800E50C6436600281877154E8700280F95127
:1003F800B985000CE8644360028187D3E5639431D2
:1004080074006480F8E564648098401DC3E56394D3
:1004180032F8E5649400F985006385016485000875
:1004280085010951F7512F805651BE715A85650AC9
:1004380085660B751902751A0374302565F51B510D
:1004480063715A85650D85660E751902751A0474EF
:10045800302565F51B5163A80AA90B7C0A7D00515C
:100468001DE56328F8E56439F9E8250DF8E9350E46
:10047800F985006385016485000885010951F72223
:10048800C2A2C2A3112E112E112EC2A5C2A4C2A0AF
:10049800C2A1D2A0D2A1D2A2113EC2A2112ED2A232
:1004A800113EC2A2112ED2A2113EC2A2112ED2A07A
:1004B800C2A1D2A2113EC2A2112EC2A5C2A4C2A03C
:1004C800D2A0C2A1D2A2113EC2A2C2A0D2A5D2A2DB
:1004D800113EC2A2112EC2A5D2A1D2A2113EC2A221
:1004E800C2A1D2A2113EC2A2112EC2A1D2A2113E15
:1004F800C2A2D2A1D2A2113EC2A2112EC2A1D2A2E0
:10050800113EC2A2D2A5D2A4D2A0D2A1D2A2113E9B
:08051800C2A2112E750F012291
:10052000E50C64316002A1BF7154E8700280F9519A
:10053000B985000CE864436002A1BFD3E530943173
:1005400074006480F8E531648098401DC3E5309400
:1005500032F8E5319400F9850030850131850008D5
:1005600085010951F7512F805651BE715A85650A90
:1005700085660B751902751A0374302565F51B51D4
:1005800063715A85650D85660E751902751A0474B6
:10059000302565F51B5163A80AA90B7C0A7D005123
:1005A0001DE53028F8E53139F9E8250DF8E9350E73
:1005B000F985003085013185000885010951F72250
:1005C000E50C64446002C15F7154E8700280F95127
:1005D000B985000CE864456002C15FD3E53294310F
:1005E00074006480F8E533648098401DC3E532945C
:1005F00032F8E5339400F98500328501338500082F
:1006000085010951F7512F805651BE715A85650AEF
:1006100085660B751902751A0374302565F51B5133
:1006200063715A85650D85660E751902751A047415
:10063000302565F51B5163A80AA90B7C0A7D005182
:100640001DE53228F8E53339F9E8250DF8E9350ECE
:10065000F985003285013385000885010951F722AB
:0F066000D294D295D296D290D291D292D29222A7
:08066F00E493F608A3D9F92277
:100677007516FF7517FF7518FF7510B97511027597
:100687001200751354751403751500759850758706
:080697000075884075892022DE
:10069F007154E8600B51B985000C71E8B120B1C0FD
:0106AF002228
:1006B000918875210C1140751C01751D06751E343D
:1006C00031B27D047E817F79DFFEDEFCDDFA0075CC
:0506D000210111402290
:1006D50075818012073AD160758DFD758BFDD177D7
:0A06E500D1B05118D19F80FC80FEB7
:0E073A007830794B7582EF75830612066F22B8
:0206EF003200D7
:0206F1004600C1
:0506F300686169690067
:0D06F8006C6573732062616C616E63650058
:10070500706C656173652072656368617267650009
:0D071500454E54455220414D4F554E540065
:020722002D00A8
:020724000C00C7
:0507260042414C2000DF
:0F072B005448414E4B20594F55205553455200CD
:00000001FF
